{
  "contractName": "createActors",
  "abi": [
    {
      "anonymous": false,
      "inputs": [
        {
          "indexed": false,
          "internalType": "string",
          "name": "bookName",
          "type": "string"
        },
        {
          "indexed": false,
          "internalType": "string",
          "name": "auhtor",
          "type": "string"
        }
      ],
      "name": "BookCreated",
      "type": "event"
    },
    {
      "anonymous": false,
      "inputs": [
        {
          "indexed": false,
          "internalType": "uint256",
          "name": "bookName",
          "type": "uint256"
        },
        {
          "indexed": false,
          "internalType": "uint256",
          "name": "userName",
          "type": "uint256"
        }
      ],
      "name": "HasReadBook",
      "type": "event"
    },
    {
      "anonymous": false,
      "inputs": [
        {
          "indexed": false,
          "internalType": "string",
          "name": "userType",
          "type": "string"
        },
        {
          "indexed": false,
          "internalType": "string",
          "name": "userName",
          "type": "string"
        },
        {
          "indexed": false,
          "internalType": "string",
          "name": "aboutAuthor",
          "type": "string"
        }
      ],
      "name": "UserCreated",
      "type": "event"
    },
    {
      "constant": true,
      "inputs": [
        {
          "internalType": "address",
          "name": "",
          "type": "address"
        }
      ],
      "name": "authorIdMapping",
      "outputs": [
        {
          "internalType": "string",
          "name": "name",
          "type": "string"
        },
        {
          "internalType": "string",
          "name": "aboutAuthor",
          "type": "string"
        }
      ],
      "payable": false,
      "stateMutability": "view",
      "type": "function"
    },
    {
      "constant": true,
      "inputs": [
        {
          "internalType": "uint256",
          "name": "",
          "type": "uint256"
        }
      ],
      "name": "bookIdMapping",
      "outputs": [
        {
          "internalType": "address",
          "name": "authorId",
          "type": "address"
        },
        {
          "internalType": "uint256",
          "name": "bookId",
          "type": "uint256"
        },
        {
          "internalType": "string",
          "name": "name",
          "type": "string"
        }
      ],
      "payable": false,
      "stateMutability": "view",
      "type": "function"
    },
    {
      "constant": true,
      "inputs": [
        {
          "internalType": "address",
          "name": "",
          "type": "address"
        },
        {
          "internalType": "uint256",
          "name": "",
          "type": "uint256"
        }
      ],
      "name": "booksOfAuthor",
      "outputs": [
        {
          "internalType": "address",
          "name": "authorId",
          "type": "address"
        },
        {
          "internalType": "uint256",
          "name": "bookId",
          "type": "uint256"
        },
        {
          "internalType": "string",
          "name": "name",
          "type": "string"
        }
      ],
      "payable": false,
      "stateMutability": "view",
      "type": "function"
    },
    {
      "constant": true,
      "inputs": [
        {
          "internalType": "address",
          "name": "",
          "type": "address"
        }
      ],
      "name": "readerIdMapping",
      "outputs": [
        {
          "internalType": "string",
          "name": "name",
          "type": "string"
        }
      ],
      "payable": false,
      "stateMutability": "view",
      "type": "function"
    },
    {
      "constant": false,
      "inputs": [
        {
          "internalType": "string",
          "name": "_name",
          "type": "string"
        },
        {
          "internalType": "string",
          "name": "_aboutAuthor",
          "type": "string"
        }
      ],
      "name": "createAuthor",
      "outputs": [],
      "payable": false,
      "stateMutability": "nonpayable",
      "type": "function"
    },
    {
      "constant": false,
      "inputs": [
        {
          "internalType": "string",
          "name": "_name",
          "type": "string"
        }
      ],
      "name": "createReader",
      "outputs": [],
      "payable": false,
      "stateMutability": "nonpayable",
      "type": "function"
    },
    {
      "constant": false,
      "inputs": [
        {
          "internalType": "string",
          "name": "_name",
          "type": "string"
        }
      ],
      "name": "createBook",
      "outputs": [],
      "payable": false,
      "stateMutability": "nonpayable",
      "type": "function"
    },
    {
      "constant": true,
      "inputs": [],
      "name": "getAllAuthors",
      "outputs": [
        {
          "internalType": "string[]",
          "name": "",
          "type": "string[]"
        }
      ],
      "payable": false,
      "stateMutability": "view",
      "type": "function"
    },
    {
      "constant": true,
      "inputs": [],
      "name": "getAllBooksOfAuthor",
      "outputs": [
        {
          "internalType": "string[]",
          "name": "",
          "type": "string[]"
        }
      ],
      "payable": false,
      "stateMutability": "view",
      "type": "function"
    },
    {
      "constant": true,
      "inputs": [],
      "name": "getAllBooks",
      "outputs": [
        {
          "components": [
            {
              "internalType": "address",
              "name": "authorId",
              "type": "address"
            },
            {
              "internalType": "uint256",
              "name": "bookId",
              "type": "uint256"
            },
            {
              "internalType": "string",
              "name": "name",
              "type": "string"
            },
            {
              "internalType": "uint256[]",
              "name": "chapterIdList",
              "type": "uint256[]"
            }
          ],
          "internalType": "struct createActors.book[]",
          "name": "",
          "type": "tuple[]"
        }
      ],
      "payable": false,
      "stateMutability": "view",
      "type": "function"
    }
  ],
  "bytecode": "0x608060405260006001556000600255600060035534801561001f57600080fd5b50611ce18061002f6000396000f3fe608060405234801561001057600080fd5b506004361061009e5760003560e01c806373a8a9e71161006657806373a8a9e71461015d5780638d0647ad14610179578063b9f72b7d146101aa578063d8ab1d91146101c6578063f2cc80ce146101f85761009e565b8063117a7dcf146100a357806324a4e498146100d5578063354528e8146100f1578063465750541461010f5780635d7869e41461013f575b600080fd5b6100bd60048036036100b891908101906113d8565b610216565b6040516100cc939291906118ec565b60405180910390f35b6100ef60048036036100ea9190810190611414565b610312565b005b6100f96103a3565b604051610106919061194c565b60405180910390f35b610129600480360361012491908101906113af565b610599565b604051610136919061196e565b60405180910390f35b61014761064f565b604051610154919061192a565b60405180910390f35b61017760048036036101729190810190611455565b6107db565b005b610193600480360361018e91908101906113af565b61092c565b6040516101a19291906119c7565b60405180910390f35b6101c460048036036101bf9190810190611414565b610a80565b005b6101e060048036036101db91908101906114c1565b610d51565b6040516101ef939291906118ec565b60405180910390f35b610200610e33565b60405161020d919061192a565b60405180910390f35b6000602052816000526040600020818154811061022f57fe5b9060005260206000209060040201600091509150508060000160009054906101000a900473ffffffffffffffffffffffffffffffffffffffff1690806001015490806002018054600181600116156101000203166002900480601f0160208091040260200160405190810160405280929190818152602001828054600181600116156101000203166002900480156103085780601f106102dd57610100808354040283529160200191610308565b820191906000526020600020905b8154815290600101906020018083116102eb57829003601f168201915b5050505050905083565b80600660003373ffffffffffffffffffffffffffffffffffffffff1673ffffffffffffffffffffffffffffffffffffffff1681526020019081526020016000206000019080519060200190610368929190611154565b507fdd75d3192535501dcaeaed99fb80f0f968daa8fb6d037d943472244718aa4290816040516103989190611a48565b60405180910390a150565b6060806001546040519080825280602002602001820160405280156103e257816020015b6103cf6111d4565b8152602001906001900390816103c75790505b50905060008090505b60015481101561059157600760008281526020019081526020016000206040518060800160405290816000820160009054906101000a900473ffffffffffffffffffffffffffffffffffffffff1673ffffffffffffffffffffffffffffffffffffffff1673ffffffffffffffffffffffffffffffffffffffff16815260200160018201548152602001600282018054600181600116156101000203166002900480601f01602080910402602001604051908101604052809291908181526020018280546001816001161561010002031660029004801561050c5780601f106104e15761010080835404028352916020019161050c565b820191906000526020600020905b8154815290600101906020018083116104ef57829003601f168201915b505050505081526020016003820180548060200260200160405190810160405280929190818152602001828054801561056457602002820191906000526020600020905b815481526020019060010190808311610550575b50505050508152505082828151811061057957fe5b602002602001018190525080806001019150506103eb565b508091505090565b6006602052806000526040600020600091509050806000018054600181600116156101000203166002900480601f0160208091040260200160405190810160405280929190818152602001828054600181600116156101000203166002900480156106455780601f1061061a57610100808354040283529160200191610645565b820191906000526020600020905b81548152906001019060200180831161062857829003601f168201915b5050505050905081565b60608060035460405190808252806020026020018201604052801561068857816020015b60608152602001906001900390816106735790505b50905060008090505b6003548110156107d35760006004600083815260200190815260200160002060009054906101000a900473ffffffffffffffffffffffffffffffffffffffff169050600560008273ffffffffffffffffffffffffffffffffffffffff1673ffffffffffffffffffffffffffffffffffffffff1681526020019081526020016000206000018054600181600116156101000203166002900480601f0160208091040260200160405190810160405280929190818152602001828054600181600116156101000203166002900480156107a95780601f1061077e576101008083540402835291602001916107a9565b820191906000526020600020905b81548152906001019060200180831161078c57829003601f168201915b50505050508383815181106107ba57fe5b6020026020010181905250508080600101915050610691565b508091505090565b81600560003373ffffffffffffffffffffffffffffffffffffffff1673ffffffffffffffffffffffffffffffffffffffff1681526020019081526020016000206000019080519060200190610831929190611154565b5080600560003373ffffffffffffffffffffffffffffffffffffffff1673ffffffffffffffffffffffffffffffffffffffff1681526020019081526020016000206001019080519060200190610888929190611154565b503360046000600354815260200190815260200160002060006101000a81548173ffffffffffffffffffffffffffffffffffffffff021916908373ffffffffffffffffffffffffffffffffffffffff1602179055506003600081548092919060010191905055507fdd75d3192535501dcaeaed99fb80f0f968daa8fb6d037d943472244718aa429082826040516109209291906119fe565b60405180910390a15050565b6005602052806000526040600020600091509050806000018054600181600116156101000203166002900480601f0160208091040260200160405190810160405280929190818152602001828054600181600116156101000203166002900480156109d85780601f106109ad576101008083540402835291602001916109d8565b820191906000526020600020905b8154815290600101906020018083116109bb57829003601f168201915b505050505090806001018054600181600116156101000203166002900480601f016020809104026020016040519081016040528092919081815260200182805460018160011615610100020316600290048015610a765780601f10610a4b57610100808354040283529160200191610a76565b820191906000526020600020905b815481529060010190602001808311610a5957829003601f168201915b5050505050905082565b600560003373ffffffffffffffffffffffffffffffffffffffff1673ffffffffffffffffffffffffffffffffffffffff1681526020019081526020016000206002016001549080600181540180825580915050906001820390600052602060002001600090919290919091505550806007600060015481526020019081526020016000206002019080519060200190610b1a929190611154565b503360076000600154815260200190815260200160002060000160006101000a81548173ffffffffffffffffffffffffffffffffffffffff021916908373ffffffffffffffffffffffffffffffffffffffff160217905550600154600760006001548152602001908152602001600020600101819055506001600081548092919060010191905055506000803373ffffffffffffffffffffffffffffffffffffffff1673ffffffffffffffffffffffffffffffffffffffff168152602001908152602001600020600760006001548152602001908152602001600020908060018154018082558091505090600182039060005260206000209060040201600090919290919091506000820160009054906101000a900473ffffffffffffffffffffffffffffffffffffffff168160000160006101000a81548173ffffffffffffffffffffffffffffffffffffffff021916908373ffffffffffffffffffffffffffffffffffffffff1602179055506001820154816001015560028201816002019080546001816001161561010002031660029004610cb9929190611212565b506003820181600301908054610cd0929190611299565b505050507f55eca2fceb3e323326942151beb49e654c897f0b534546291700b705c02022b681600560003373ffffffffffffffffffffffffffffffffffffffff1673ffffffffffffffffffffffffffffffffffffffff168152602001908152602001600020600001604051610d46929190611990565b60405180910390a150565b60076020528060005260406000206000915090508060000160009054906101000a900473ffffffffffffffffffffffffffffffffffffffff1690806001015490806002018054600181600116156101000203166002900480601f016020809104026020016040519081016040528092919081815260200182805460018160011615610100020316600290048015610e295780601f10610dfe57610100808354040283529160200191610e29565b820191906000526020600020905b815481529060010190602001808311610e0c57829003601f168201915b5050505050905083565b6060610e3d6112eb565b600560003373ffffffffffffffffffffffffffffffffffffffff1673ffffffffffffffffffffffffffffffffffffffff168152602001908152602001600020604051806060016040529081600082018054600181600116156101000203166002900480601f016020809104026020016040519081016040528092919081815260200182805460018160011615610100020316600290048015610f205780601f10610ef557610100808354040283529160200191610f20565b820191906000526020600020905b815481529060010190602001808311610f0357829003601f168201915b50505050508152602001600182018054600181600116156101000203166002900480601f016020809104026020016040519081016040528092919081815260200182805460018160011615610100020316600290048015610fc25780601f10610f9757610100808354040283529160200191610fc2565b820191906000526020600020905b815481529060010190602001808311610fa557829003601f168201915b505050505081526020016002820180548060200260200160405190810160405280929190818152602001828054801561101a57602002820191906000526020600020905b815481526020019060010190808311611006575b50505050508152505090506060816040015190506060815160405190808252806020026020018201604052801561106557816020015b60608152602001906001900390816110505790505b50905060008090505b825181101561114a57600760008281526020019081526020016000206002018054600181600116156101000203166002900480601f0160208091040260200160405190810160405280929190818152602001828054600181600116156101000203166002900480156111215780601f106110f657610100808354040283529160200191611121565b820191906000526020600020905b81548152906001019060200180831161110457829003601f168201915b505050505082828151811061113257fe5b6020026020010181905250808060010191505061106e565b5080935050505090565b828054600181600116156101000203166002900490600052602060002090601f016020900481019282601f1061119557805160ff19168380011785556111c3565b828001600101855582156111c3579182015b828111156111c25782518255916020019190600101906111a7565b5b5090506111d0919061130c565b5090565b6040518060800160405280600073ffffffffffffffffffffffffffffffffffffffff1681526020016000815260200160608152602001606081525090565b828054600181600116156101000203166002900490600052602060002090601f016020900481019282601f1061124b5780548555611288565b8280016001018555821561128857600052602060002091601f016020900482015b8281111561128757825482559160010191906001019061126c565b5b509050611295919061130c565b5090565b8280548282559060005260206000209081019282156112da5760005260206000209182015b828111156112d95782548255916001019190600101906112be565b5b5090506112e7919061130c565b5090565b60405180606001604052806060815260200160608152602001606081525090565b61132e91905b8082111561132a576000816000905550600101611312565b5090565b90565b60008135905061134081611c70565b92915050565b600082601f83011261135757600080fd5b813561136a61136582611abd565b611a90565b9150808252602083016020830185838301111561138657600080fd5b611391838284611c1d565b50505092915050565b6000813590506113a981611c87565b92915050565b6000602082840312156113c157600080fd5b60006113cf84828501611331565b91505092915050565b600080604083850312156113eb57600080fd5b60006113f985828601611331565b925050602061140a8582860161139a565b9150509250929050565b60006020828403121561142657600080fd5b600082013567ffffffffffffffff81111561144057600080fd5b61144c84828501611346565b91505092915050565b6000806040838503121561146857600080fd5b600083013567ffffffffffffffff81111561148257600080fd5b61148e85828601611346565b925050602083013567ffffffffffffffff8111156114ab57600080fd5b6114b785828601611346565b9150509250929050565b6000602082840312156114d357600080fd5b60006114e18482850161139a565b91505092915050565b60006114f683836116c9565b905092915050565b600061150a8383611864565b905092915050565b600061151e83836118ce565b60208301905092915050565b61153381611be1565b82525050565b61154281611be1565b82525050565b600061155382611b2e565b61155d8185611b8c565b93508360208202850161156f85611ae9565b8060005b858110156115ab578484038952815161158c85826114ea565b945061159783611b65565b925060208a01995050600181019050611573565b50829750879550505050505092915050565b60006115c882611b39565b6115d28185611b9d565b9350836020820285016115e485611af9565b8060005b85811015611620578484038952815161160185826114fe565b945061160c83611b72565b925060208a019950506001810190506115e8565b50829750879550505050505092915050565b600061163d82611b44565b6116478185611bae565b935061165283611b09565b8060005b8381101561168357815161166a8882611512565b975061167583611b7f565b925050600181019050611656565b5085935050505092915050565b600061169b82611b5a565b6116a58185611bd0565b93506116b5818560208601611c2c565b6116be81611c5f565b840191505092915050565b60006116d482611b4f565b6116de8185611bbf565b93506116ee818560208601611c2c565b6116f781611c5f565b840191505092915050565b600061170d82611b4f565b6117178185611bd0565b9350611727818560208601611c2c565b61173081611c5f565b840191505092915050565b600081546001811660008114611758576001811461177e576117c2565b607f60028304166117698187611bd0565b955060ff1983168652602086019350506117c2565b6002820461178c8187611bd0565b955061179785611b19565b60005b828110156117b95781548189015260018201915060208101905061179a565b80880195505050505b505092915050565b60006117d7600683611bd0565b91507f417574686f7200000000000000000000000000000000000000000000000000006000830152602082019050919050565b6000611817600083611bd0565b9150600082019050919050565b6000611831600683611bd0565b91507f52656164657200000000000000000000000000000000000000000000000000006000830152602082019050919050565b600060808301600083015161187c600086018261152a565b50602083015161188f60208601826118ce565b50604083015184820360408601526118a782826116c9565b915050606083015184820360608601526118c18282611632565b9150508091505092915050565b6118d781611c13565b82525050565b6118e681611c13565b82525050565b60006060820190506119016000830186611539565b61190e60208301856118dd565b81810360408301526119208184611702565b9050949350505050565b600060208201905081810360008301526119448184611548565b905092915050565b6000602082019050818103600083015261196681846115bd565b905092915050565b600060208201905081810360008301526119888184611702565b905092915050565b600060408201905081810360008301526119aa8185611690565b905081810360208301526119be818461173b565b90509392505050565b600060408201905081810360008301526119e18185611702565b905081810360208301526119f58184611702565b90509392505050565b60006060820190508181036000830152611a17816117ca565b90508181036020830152611a2b8185611690565b90508181036040830152611a3f8184611690565b90509392505050565b60006060820190508181036000830152611a6181611824565b90508181036020830152611a758184611690565b90508181036040830152611a888161180a565b905092915050565b6000604051905081810181811067ffffffffffffffff82111715611ab357600080fd5b8060405250919050565b600067ffffffffffffffff821115611ad457600080fd5b601f19601f8301169050602081019050919050565b6000819050602082019050919050565b6000819050602082019050919050565b6000819050602082019050919050565b60008190508160005260206000209050919050565b600081519050919050565b600081519050919050565b600081519050919050565b600081519050919050565b600081519050919050565b6000602082019050919050565b6000602082019050919050565b6000602082019050919050565b600082825260208201905092915050565b600082825260208201905092915050565b600082825260208201905092915050565b600082825260208201905092915050565b600082825260208201905092915050565b6000611bec82611bf3565b9050919050565b600073ffffffffffffffffffffffffffffffffffffffff82169050919050565b6000819050919050565b82818337600083830152505050565b60005b83811015611c4a578082015181840152602081019050611c2f565b83811115611c59576000848401525b50505050565b6000601f19601f8301169050919050565b611c7981611be1565b8114611c8457600080fd5b50565b611c9081611c13565b8114611c9b57600080fd5b5056fea365627a7a72315820d134d64abc658ef34cdcb7faf235b54f05f0c69294b5755d69af8beefb6844616c6578706572696d656e74616cf564736f6c63430005100040",
  "source": "//pragma solidity ^0.5.0;\npragma experimental ABIEncoderV2;\n\ncontract createActors{\n\n    mapping(address =>book []) public booksOfAuthor;\n    struct author{\n        string name;\n        string aboutAuthor;\n        uint[] bookIdList;\n    }\n\n    struct reader{\n        string name;\n    }\n\n    struct book{\n        address authorId;\n        uint bookId;\n        string name;\n        uint[] chapterIdList;\n    }\n\n\n    event HasReadBook(uint256 bookName, uint256 userName);\n    event UserCreated(string userType, string userName, string aboutAuthor);\n    event BookCreated(string bookName, string auhtor);\n    \n    uint bookId = 0;\n    uint readerCount = 0;\n    uint authorID = 0;\n    mapping(uint => address) authorIDToAddress;\n    mapping (address => author) public authorIdMapping;\n    mapping (address => reader) public readerIdMapping;\n    mapping (uint => book) public bookIdMapping;\n\n    function createAuthor(string memory _name, string memory _aboutAuthor) public\n    {\n        //check if msg.sender is not in authorIdMapping\n        authorIdMapping[msg.sender].name = _name;\n        authorIdMapping[msg.sender].aboutAuthor = _aboutAuthor;\n        authorIDToAddress[authorID] = msg.sender;\n        authorID++;\n        emit UserCreated(\"Author\", _name, _aboutAuthor);\n    }\n\n    function createReader(string memory _name) public\n    {\n        // check if msg.sender is not in readerIdMapping\n        readerIdMapping[msg.sender].name = _name;\n        emit UserCreated(\"Reader\", _name, \"\");\n    }\n\n    function createBook(string memory _name) public\n    {\n        // check if msg.sender exists in authorIdMapping\n        //authorBookList[msg.sender][authorBookCount] = bookId;\n        authorIdMapping[msg.sender].bookIdList.push(bookId);\n        bookIdMapping[bookId].name = _name;\n        bookIdMapping[bookId].authorId = msg.sender;\n        bookIdMapping[bookId].bookId = bookId;\n        bookId++;\n        booksOfAuthor[msg.sender].push(bookIdMapping[bookId]);\n        emit BookCreated(_name, authorIdMapping[msg.sender].name);\n    }\n    \n    \n    function getAllAuthors() view public returns (string[] memory )\n    {\n        string[] memory authourList = new string[](authorID);\n        for (uint i  = 0; i < authorID; i++)\n        {\n            address _temp = authorIDToAddress[i];\n            authourList[i] = authorIdMapping[_temp].name;\n        }\n        return authourList;\n    }\n    \n    \n    function getAllBooksOfAuthor() view public returns (string[] memory ) \n    {\n        author memory focusAuthor = authorIdMapping[msg.sender];\n        uint[] memory all_books_id = focusAuthor.bookIdList;\n        string[] memory bookNameList = new string[](all_books_id.length);\n        for (uint i = 0; i<all_books_id.length;i++){\n            bookNameList[i] = bookIdMapping[i].name;\n            }\n        return bookNameList;\n        \n    }\n    \n    function getAllBooks() view public returns (book[] memory)\n    {\n        book[] memory allBooks = new book[](bookId);\n        for (uint i = 0; i < bookId; i++)\n            allBooks[i] = bookIdMapping[i];\n        return allBooks;\n    }\n    \n}\n\ncontract story is createActors{\n    address owner;\n\n    struct chapter {\n        address author;\n        uint bookId;\n        string name;\n        uint bounty;\n        string content;\n        bool authorPreference;\n        string question;\n        mapping (address => bool) votesCasted;\n        mapping (address => uint) stake;\n        address[] readers;\n        uint chapterState;\n        bool isResolved;\n    }\n// get all chapters of a book\n    \n    uint chapterId = 0;\n    mapping (uint => chapter) public ChapterMapping;\n    event ChapterCreated(string chapterName, string authorName);\n\n    function createChapter(uint _bookId, string memory _name, string memory _content, string memory _question,\n    bool _authorPreference) public payable    {\n        require(msg.value >= 1 ether,\n        \"keep a bounty\");\n        //uint chapterCount = bookIdMapping[_bookId].chapterIdList.length;\n        bookIdMapping[_bookId].chapterIdList.push(chapterId);\n        ChapterMapping[chapterId].author = msg.sender;\n        ChapterMapping[chapterId].bookId = _bookId;\n        ChapterMapping[chapterId].name = _name;\n        ChapterMapping[chapterId].bounty = msg.value;\n        ChapterMapping[chapterId].content = _content;\n        ChapterMapping[chapterId].question = _question;\n        ChapterMapping[chapterId].authorPreference = _authorPreference;\n        chapterId++;\n        emit ChapterCreated(_name, authorIdMapping[msg.sender].name);\n    }\n\n    function getAllChapterBooks(uint _bookId) public view returns (string[] memory chapterOfBook)\n    {\n        uint[] memory chaptersList = bookIdMapping[_bookId].chapterIdList;\n        string[] memory chapterOfBook = new string[](chaptersList.length);\n        for (uint i = 0; i < chaptersList.length; i++)\n            chapterOfBook[i] = ChapterMapping[chaptersList[i]].name;\n            \n        return chapterOfBook;\n    }\n    \n    \n    function readChapter(uint _chapterId) public\n    {\n        // frontend how will the owner call readChapter !!!!\n        //require(msg.sender == owner);\n        //dont push again and again\n        ChapterMapping[_chapterId].readers.push(msg.sender);\n    }\n\n    function payReaders(uint _chapterId ) public{\n        //require(msg.sender == owner);\n        require(ChapterMapping[_chapterId].chapterState == 0, \"chapter is not new\");\n\n        uint bounty = (ChapterMapping[_chapterId].bounty * 5)/100;\n        address[] memory readerList = ChapterMapping[_chapterId].readers;\n        uint numberOfReaders = readerList.length;\n        uint readersShare = bounty/numberOfReaders;\n        for (uint i = 0; i < numberOfReaders; i++)\n        {\n            address(uint160(readerList[i])).transfer(readersShare);\n        }\n        ChapterMapping[_chapterId].chapterState = 1; //readers have been paid\n    }\n\n    function voteForFollowup(uint _chapterId,bool _vote ) public payable{\n        uint bounty = msg.value;\n        require(bounty >= 0.001 ether && bounty <= 3 ether,\"bounty amount needs to be within 0.001 ether to 3 ether\");\n        require( ChapterMapping[_chapterId].chapterState < 2, \"Voting possible only on new chapters\");\n        \n        if (_vote == true)\n        {\n            ChapterMapping[_chapterId].votesCasted[msg.sender] = true;\n        }\n        else\n        {\n            ChapterMapping[_chapterId].stake[msg.sender] = bounty;\n        }\n    }\n\n    function createConsesus(uint _chapterId) internal view returns (bool,uint,uint)\n    {\n        bool winner = false;\n        uint returnSum = 0;\n        chapter storage focusChapter = ChapterMapping[_chapterId];\n\n        // figure out propotion of winner\n\n        uint totalTrueCount;\n        uint totalFalseCount;\n        uint totalTrueSum;\n        uint totalFalseSum;\n\n        for (uint i = 0; i < focusChapter.readers.length; i++)\n        {\n            address temp_ = focusChapter.readers[i];\n            if (focusChapter.votesCasted[temp_] == true)\n            {\n                totalTrueCount++;\n                totalTrueSum += focusChapter.stake[temp_];\n            }\n            else if (focusChapter.votesCasted[temp_] == false)\n            {\n                totalFalseCount++;\n                totalFalseSum += focusChapter.stake[temp_];\n            }\n\n        }\n\n        if (totalTrueSum > totalFalseSum)\n        {\n            winner = true;\n            returnSum = totalTrueSum;\n        }\n        else if (totalFalseSum > totalTrueSum)\n        {\n            winner = false;\n            returnSum = totalFalseSum;\n        }\n        else\n        {\n            if (totalTrueCount > totalFalseCount)\n            {\n                winner = true;\n                returnSum = totalTrueSum;\n            }\n            else if (totalFalseCount > totalTrueCount)\n            {\n                winner = false;\n                returnSum = totalFalseSum;\n            }\n            else\n            {\n                if (focusChapter.authorPreference == true)\n                {\n                    winner = true;\n                    totalTrueSum = totalTrueSum;\n                }\n                else\n                {\n                    winner = false;\n                    returnSum = totalFalseSum;\n                }\n            }\n        }\n        uint total_pool_author = (ChapterMapping[_chapterId].bounty * 95)/100;\n        uint total_pool_betting = totalTrueSum + totalFalseSum;\n        uint total_pool = total_pool_author + total_pool_betting;\n        return (winner,total_pool,returnSum);\n    }\n\n    function makePayemntOnConsensus (uint _chapterId) public payable{\n        chapter storage focusChapter = ChapterMapping[_chapterId];\n        //this should work only if state is active and unresolved\n        require(ChapterMapping[chapterId].chapterState == 0);\n        \n        ( bool winner, uint total_pool,uint returnSum) = createConsesus(_chapterId);\n        ChapterMapping[_chapterId].chapterState = 2;\n        require(!focusChapter.isResolved);\n\n        for (uint i = 0; i < focusChapter.readers.length; i++)\n        {\n            address temp_ = focusChapter.readers[i];\n            if (focusChapter.votesCasted[temp_] == winner)\n            {\n                uint stake = focusChapter.stake[temp_];\n                uint toPay = (stake/returnSum)*total_pool;\n                address(uint160(temp_)).transfer(toPay);\n            }\n        }\n        ChapterMapping[_chapterId].chapterState = 3; //voters have been paid\n        focusChapter.isResolved = true;\n    }\n}\n",
  "sourcePath": "/Users/adityaranaut/Desktop/makethon final/eth-taskreview/contracts/smart_contract.sol",
  "compiler": {
    "name": "solc",
    "version": "0.5.16+commit.9c3226ce.Emscripten.clang"
  },
  "schemaVersion": "3.3.4",
  "updatedAt": "2021-03-06T22:35:15.232Z",
  "networkType": "ethereum",
  "devdoc": {
    "methods": {}
  },
  "userdoc": {
    "methods": {}
  }
}