{
  "contractName": "story",
  "abi": [
    {
      "anonymous": false,
      "inputs": [
        {
          "indexed": false,
          "internalType": "string",
          "name": "bookName",
          "type": "string"
        },
        {
          "indexed": false,
          "internalType": "string",
          "name": "auhtor",
          "type": "string"
        }
      ],
      "name": "BookCreated",
      "type": "event"
    },
    {
      "anonymous": false,
      "inputs": [
        {
          "indexed": false,
          "internalType": "string",
          "name": "chapterName",
          "type": "string"
        },
        {
          "indexed": false,
          "internalType": "string",
          "name": "authorName",
          "type": "string"
        }
      ],
      "name": "ChapterCreated",
      "type": "event"
    },
    {
      "anonymous": false,
      "inputs": [
        {
          "indexed": false,
          "internalType": "uint256",
          "name": "bookName",
          "type": "uint256"
        },
        {
          "indexed": false,
          "internalType": "uint256",
          "name": "userName",
          "type": "uint256"
        }
      ],
      "name": "HasReadBook",
      "type": "event"
    },
    {
      "anonymous": false,
      "inputs": [
        {
          "indexed": false,
          "internalType": "string",
          "name": "userType",
          "type": "string"
        },
        {
          "indexed": false,
          "internalType": "string",
          "name": "userName",
          "type": "string"
        },
        {
          "indexed": false,
          "internalType": "string",
          "name": "aboutAuthor",
          "type": "string"
        }
      ],
      "name": "UserCreated",
      "type": "event"
    },
    {
      "constant": true,
      "inputs": [
        {
          "internalType": "uint256",
          "name": "",
          "type": "uint256"
        }
      ],
      "name": "ChapterMapping",
      "outputs": [
        {
          "internalType": "address",
          "name": "author",
          "type": "address"
        },
        {
          "internalType": "uint256",
          "name": "bookId",
          "type": "uint256"
        },
        {
          "internalType": "string",
          "name": "name",
          "type": "string"
        },
        {
          "internalType": "uint256",
          "name": "bounty",
          "type": "uint256"
        },
        {
          "internalType": "string",
          "name": "content",
          "type": "string"
        },
        {
          "internalType": "bool",
          "name": "authorPreference",
          "type": "bool"
        },
        {
          "internalType": "string",
          "name": "question",
          "type": "string"
        },
        {
          "internalType": "uint256",
          "name": "chapterState",
          "type": "uint256"
        },
        {
          "internalType": "bool",
          "name": "isResolved",
          "type": "bool"
        }
      ],
      "payable": false,
      "stateMutability": "view",
      "type": "function"
    },
    {
      "constant": true,
      "inputs": [
        {
          "internalType": "address",
          "name": "",
          "type": "address"
        }
      ],
      "name": "authorIdMapping",
      "outputs": [
        {
          "internalType": "string",
          "name": "name",
          "type": "string"
        },
        {
          "internalType": "string",
          "name": "aboutAuthor",
          "type": "string"
        }
      ],
      "payable": false,
      "stateMutability": "view",
      "type": "function"
    },
    {
      "constant": true,
      "inputs": [
        {
          "internalType": "uint256",
          "name": "",
          "type": "uint256"
        }
      ],
      "name": "bookIdMapping",
      "outputs": [
        {
          "internalType": "address",
          "name": "authorId",
          "type": "address"
        },
        {
          "internalType": "uint256",
          "name": "bookId",
          "type": "uint256"
        },
        {
          "internalType": "string",
          "name": "name",
          "type": "string"
        }
      ],
      "payable": false,
      "stateMutability": "view",
      "type": "function"
    },
    {
      "constant": true,
      "inputs": [
        {
          "internalType": "address",
          "name": "",
          "type": "address"
        },
        {
          "internalType": "uint256",
          "name": "",
          "type": "uint256"
        }
      ],
      "name": "booksOfAuthor",
      "outputs": [
        {
          "internalType": "address",
          "name": "authorId",
          "type": "address"
        },
        {
          "internalType": "uint256",
          "name": "bookId",
          "type": "uint256"
        },
        {
          "internalType": "string",
          "name": "name",
          "type": "string"
        }
      ],
      "payable": false,
      "stateMutability": "view",
      "type": "function"
    },
    {
      "constant": false,
      "inputs": [
        {
          "internalType": "string",
          "name": "_name",
          "type": "string"
        },
        {
          "internalType": "string",
          "name": "_aboutAuthor",
          "type": "string"
        }
      ],
      "name": "createAuthor",
      "outputs": [],
      "payable": false,
      "stateMutability": "nonpayable",
      "type": "function"
    },
    {
      "constant": false,
      "inputs": [
        {
          "internalType": "string",
          "name": "_name",
          "type": "string"
        }
      ],
      "name": "createBook",
      "outputs": [],
      "payable": false,
      "stateMutability": "nonpayable",
      "type": "function"
    },
    {
      "constant": false,
      "inputs": [
        {
          "internalType": "string",
          "name": "_name",
          "type": "string"
        }
      ],
      "name": "createReader",
      "outputs": [],
      "payable": false,
      "stateMutability": "nonpayable",
      "type": "function"
    },
    {
      "constant": true,
      "inputs": [],
      "name": "getAllAuthors",
      "outputs": [
        {
          "internalType": "string[]",
          "name": "",
          "type": "string[]"
        }
      ],
      "payable": false,
      "stateMutability": "view",
      "type": "function"
    },
    {
      "constant": true,
      "inputs": [],
      "name": "getAllBooks",
      "outputs": [
        {
          "components": [
            {
              "internalType": "address",
              "name": "authorId",
              "type": "address"
            },
            {
              "internalType": "uint256",
              "name": "bookId",
              "type": "uint256"
            },
            {
              "internalType": "string",
              "name": "name",
              "type": "string"
            },
            {
              "internalType": "uint256[]",
              "name": "chapterIdList",
              "type": "uint256[]"
            }
          ],
          "internalType": "struct createActors.book[]",
          "name": "",
          "type": "tuple[]"
        }
      ],
      "payable": false,
      "stateMutability": "view",
      "type": "function"
    },
    {
      "constant": true,
      "inputs": [],
      "name": "getAllBooksOfAuthor",
      "outputs": [
        {
          "internalType": "string[]",
          "name": "",
          "type": "string[]"
        }
      ],
      "payable": false,
      "stateMutability": "view",
      "type": "function"
    },
    {
      "constant": true,
      "inputs": [
        {
          "internalType": "address",
          "name": "",
          "type": "address"
        }
      ],
      "name": "readerIdMapping",
      "outputs": [
        {
          "internalType": "string",
          "name": "name",
          "type": "string"
        }
      ],
      "payable": false,
      "stateMutability": "view",
      "type": "function"
    },
    {
      "constant": false,
      "inputs": [
        {
          "internalType": "uint256",
          "name": "_bookId",
          "type": "uint256"
        },
        {
          "internalType": "string",
          "name": "_name",
          "type": "string"
        },
        {
          "internalType": "string",
          "name": "_content",
          "type": "string"
        },
        {
          "internalType": "string",
          "name": "_question",
          "type": "string"
        },
        {
          "internalType": "bool",
          "name": "_authorPreference",
          "type": "bool"
        }
      ],
      "name": "createChapter",
      "outputs": [],
      "payable": true,
      "stateMutability": "payable",
      "type": "function"
    },
    {
      "constant": true,
      "inputs": [
        {
          "internalType": "uint256",
          "name": "_bookId",
          "type": "uint256"
        }
      ],
      "name": "getAllChapterBooks",
      "outputs": [
        {
          "internalType": "string[]",
          "name": "chapterOfBook",
          "type": "string[]"
        }
      ],
      "payable": false,
      "stateMutability": "view",
      "type": "function"
    },
    {
      "constant": false,
      "inputs": [
        {
          "internalType": "uint256",
          "name": "_chapterId",
          "type": "uint256"
        }
      ],
      "name": "readChapter",
      "outputs": [],
      "payable": false,
      "stateMutability": "nonpayable",
      "type": "function"
    },
    {
      "constant": false,
      "inputs": [
        {
          "internalType": "uint256",
          "name": "_chapterId",
          "type": "uint256"
        }
      ],
      "name": "payReaders",
      "outputs": [],
      "payable": false,
      "stateMutability": "nonpayable",
      "type": "function"
    },
    {
      "constant": false,
      "inputs": [
        {
          "internalType": "uint256",
          "name": "_chapterId",
          "type": "uint256"
        },
        {
          "internalType": "bool",
          "name": "_vote",
          "type": "bool"
        }
      ],
      "name": "voteForFollowup",
      "outputs": [],
      "payable": true,
      "stateMutability": "payable",
      "type": "function"
    },
    {
      "constant": false,
      "inputs": [
        {
          "internalType": "uint256",
          "name": "_chapterId",
          "type": "uint256"
        }
      ],
      "name": "makePayemntOnConsensus",
      "outputs": [],
      "payable": true,
      "stateMutability": "payable",
      "type": "function"
    }
  ],
  "bytecode": "0x6080604052600060015560006002556000600355600060095534801561002457600080fd5b506131ba806100346000396000f3fe6080604052600436106100fe5760003560e01c8063728bd59711610095578063b9f72b7d11610064578063b9f72b7d14610348578063d8ab1d9114610371578063ed12d0b6146103b0578063f2cc80ce146103cc578063f8787028146103f7576100fe565b8063728bd5971461029c57806373a8a9e7146102c55780638d0647ad146102ee578063b5843bde1461032c576100fe565b8063332a48a9116100d1578063332a48a9146101cc578063354528e81461020957806346575054146102345780635d7869e414610271576100fe565b80630e70c5a814610103578063117a7dcf1461014857806324a4e498146101875780632fc3e721146101b0575b600080fd5b34801561010f57600080fd5b5061012a600480360361012591908101906125ff565b610420565b60405161013f99989796959493929190612cbe565b60405180910390f35b34801561015457600080fd5b5061016f600480360361016a9190810190612516565b610670565b60405161017e93929190612c80565b60405180910390f35b34801561019357600080fd5b506101ae60048036036101a99190810190612552565b61076c565b005b6101ca60048036036101c59190810190612628565b6107fd565b005b3480156101d857600080fd5b506101f360048036036101ee91908101906125ff565b610995565b6040516102009190612d60565b60405180910390f35b34801561021557600080fd5b5061021e610b39565b60405161022b9190612d82565b60405180910390f35b34801561024057600080fd5b5061025b600480360361025691908101906124ed565b610d2f565b6040516102689190612da4565b60405180910390f35b34801561027d57600080fd5b50610286610de5565b6040516102939190612d60565b60405180910390f35b3480156102a857600080fd5b506102c360048036036102be91908101906125ff565b610f71565b005b3480156102d157600080fd5b506102ec60048036036102e79190810190612593565b61113e565b005b3480156102fa57600080fd5b50610315600480360361031091908101906124ed565b61128f565b604051610323929190612dfd565b60405180910390f35b61034660048036036103419190810190612664565b6113e3565b005b34801561035457600080fd5b5061036f600480360361036a9190810190612552565b61164b565b005b34801561037d57600080fd5b50610398600480360361039391908101906125ff565b61191c565b6040516103a793929190612c80565b60405180910390f35b6103ca60048036036103c591908101906125ff565b6119fe565b005b3480156103d857600080fd5b506103e1611c22565b6040516103ee9190612d60565b60405180910390f35b34801561040357600080fd5b5061041e600480360361041991908101906125ff565b611f43565b005b600a6020528060005260406000206000915090508060000160009054906101000a900473ffffffffffffffffffffffffffffffffffffffff1690806001015490806002018054600181600116156101000203166002900480601f0160208091040260200160405190810160405280929190818152602001828054600181600116156101000203166002900480156104f85780601f106104cd576101008083540402835291602001916104f8565b820191906000526020600020905b8154815290600101906020018083116104db57829003601f168201915b505050505090806003015490806004018054600181600116156101000203166002900480601f01602080910402602001604051908101604052809291908181526020018280546001816001161561010002031660029004801561059c5780601f106105715761010080835404028352916020019161059c565b820191906000526020600020905b81548152906001019060200180831161057f57829003601f168201915b5050505050908060050160009054906101000a900460ff1690806006018054600181600116156101000203166002900480601f01602080910402602001604051908101604052809291908181526020018280546001816001161561010002031660029004801561064d5780601f106106225761010080835404028352916020019161064d565b820191906000526020600020905b81548152906001019060200180831161063057829003601f168201915b50505050509080600a01549080600b0160009054906101000a900460ff16905089565b6000602052816000526040600020818154811061068957fe5b9060005260206000209060040201600091509150508060000160009054906101000a900473ffffffffffffffffffffffffffffffffffffffff1690806001015490806002018054600181600116156101000203166002900480601f0160208091040260200160405190810160405280929190818152602001828054600181600116156101000203166002900480156107625780601f1061073757610100808354040283529160200191610762565b820191906000526020600020905b81548152906001019060200180831161074557829003601f168201915b5050505050905083565b80600660003373ffffffffffffffffffffffffffffffffffffffff1673ffffffffffffffffffffffffffffffffffffffff16815260200190815260200160002060000190805190602001906107c292919061227d565b507fdd75d3192535501dcaeaed99fb80f0f968daa8fb6d037d943472244718aa4290816040516107f29190612ede565b60405180910390a150565b600034905066038d7ea4c68000811015801561082157506729a2241af62c00008111155b610860576040517f08c379a000000000000000000000000000000000000000000000000000000000815260040161085790612ebe565b60405180910390fd5b6002600a6000858152602001908152602001600020600a0154106108b9576040517f08c379a00000000000000000000000000000000000000000000000000000000081526004016108b090612e34565b60405180910390fd5b600115158215151415610937576001600a600085815260200190815260200160002060070160003373ffffffffffffffffffffffffffffffffffffffff1673ffffffffffffffffffffffffffffffffffffffff16815260200190815260200160002060006101000a81548160ff021916908315150217905550610990565b80600a600085815260200190815260200160002060080160003373ffffffffffffffffffffffffffffffffffffffff1673ffffffffffffffffffffffffffffffffffffffff168152602001908152602001600020819055505b505050565b606080600760008481526020019081526020016000206003018054806020026020016040519081016040528092919081815260200182805480156109f857602002820191906000526020600020905b8154815260200190600101908083116109e4575b5050505050905060608151604051908082528060200260200182016040528015610a3657816020015b6060815260200190600190039081610a215790505b50905060008090505b8251811015610b2e57600a6000848381518110610a5857fe5b602002602001015181526020019081526020016000206002018054600181600116156101000203166002900480601f016020809104026020016040519081016040528092919081815260200182805460018160011615610100020316600290048015610b055780601f10610ada57610100808354040283529160200191610b05565b820191906000526020600020905b815481529060010190602001808311610ae857829003601f168201915b5050505050828281518110610b1657fe5b60200260200101819052508080600101915050610a3f565b508092505050919050565b606080600154604051908082528060200260200182016040528015610b7857816020015b610b656122fd565b815260200190600190039081610b5d5790505b50905060008090505b600154811015610d2757600760008281526020019081526020016000206040518060800160405290816000820160009054906101000a900473ffffffffffffffffffffffffffffffffffffffff1673ffffffffffffffffffffffffffffffffffffffff1673ffffffffffffffffffffffffffffffffffffffff16815260200160018201548152602001600282018054600181600116156101000203166002900480601f016020809104026020016040519081016040528092919081815260200182805460018160011615610100020316600290048015610ca25780601f10610c7757610100808354040283529160200191610ca2565b820191906000526020600020905b815481529060010190602001808311610c8557829003601f168201915b5050505050815260200160038201805480602002602001604051908101604052809291908181526020018280548015610cfa57602002820191906000526020600020905b815481526020019060010190808311610ce6575b505050505081525050828281518110610d0f57fe5b60200260200101819052508080600101915050610b81565b508091505090565b6006602052806000526040600020600091509050806000018054600181600116156101000203166002900480601f016020809104026020016040519081016040528092919081815260200182805460018160011615610100020316600290048015610ddb5780601f10610db057610100808354040283529160200191610ddb565b820191906000526020600020905b815481529060010190602001808311610dbe57829003601f168201915b5050505050905081565b606080600354604051908082528060200260200182016040528015610e1e57816020015b6060815260200190600190039081610e095790505b50905060008090505b600354811015610f695760006004600083815260200190815260200160002060009054906101000a900473ffffffffffffffffffffffffffffffffffffffff169050600560008273ffffffffffffffffffffffffffffffffffffffff1673ffffffffffffffffffffffffffffffffffffffff1681526020019081526020016000206000018054600181600116156101000203166002900480601f016020809104026020016040519081016040528092919081815260200182805460018160011615610100020316600290048015610f3f5780601f10610f1457610100808354040283529160200191610f3f565b820191906000526020600020905b815481529060010190602001808311610f2257829003601f168201915b5050505050838381518110610f5057fe5b6020026020010181905250508080600101915050610e27565b508091505090565b6000600a6000838152602001908152602001600020600a015414610fca576040517f08c379a0000000000000000000000000000000000000000000000000000000008152600401610fc190612e54565b60405180910390fd5b600060646005600a6000858152602001908152602001600020600301540281610fef57fe5b0490506060600a600084815260200190815260200160002060090180548060200260200160405190810160405280929190818152602001828054801561108a57602002820191906000526020600020905b8160009054906101000a900473ffffffffffffffffffffffffffffffffffffffff1673ffffffffffffffffffffffffffffffffffffffff1681526020019060010190808311611040575b5050505050905060008151905060008184816110a257fe5b04905060008090505b8281101561111a578381815181106110bf57fe5b602002602001015173ffffffffffffffffffffffffffffffffffffffff166108fc839081150290604051600060405180830381858888f1935050505015801561110c573d6000803e3d6000fd5b5080806001019150506110ab565b506001600a6000878152602001908152602001600020600a01819055505050505050565b81600560003373ffffffffffffffffffffffffffffffffffffffff1673ffffffffffffffffffffffffffffffffffffffff168152602001908152602001600020600001908051906020019061119492919061227d565b5080600560003373ffffffffffffffffffffffffffffffffffffffff1673ffffffffffffffffffffffffffffffffffffffff16815260200190815260200160002060010190805190602001906111eb92919061227d565b503360046000600354815260200190815260200160002060006101000a81548173ffffffffffffffffffffffffffffffffffffffff021916908373ffffffffffffffffffffffffffffffffffffffff1602179055506003600081548092919060010191905055507fdd75d3192535501dcaeaed99fb80f0f968daa8fb6d037d943472244718aa42908282604051611283929190612e74565b60405180910390a15050565b6005602052806000526040600020600091509050806000018054600181600116156101000203166002900480601f01602080910402602001604051908101604052809291908181526020018280546001816001161561010002031660029004801561133b5780601f106113105761010080835404028352916020019161133b565b820191906000526020600020905b81548152906001019060200180831161131e57829003601f168201915b505050505090806001018054600181600116156101000203166002900480601f0160208091040260200160405190810160405280929190818152602001828054600181600116156101000203166002900480156113d95780601f106113ae576101008083540402835291602001916113d9565b820191906000526020600020905b8154815290600101906020018083116113bc57829003601f168201915b5050505050905082565b670de0b6b3a764000034101561142e576040517f08c379a000000000000000000000000000000000000000000000000000000000815260040161142590612f26565b60405180910390fd5b60076000868152602001908152602001600020600301600954908060018154018082558091505090600182039060005260206000200160009091929091909150555033600a6000600954815260200190815260200160002060000160006101000a81548173ffffffffffffffffffffffffffffffffffffffff021916908373ffffffffffffffffffffffffffffffffffffffff16021790555084600a600060095481526020019081526020016000206001018190555083600a60006009548152602001908152602001600020600201908051906020019061151092919061227d565b5034600a600060095481526020019081526020016000206003018190555082600a60006009548152602001908152602001600020600401908051906020019061155a92919061227d565b5081600a60006009548152602001908152602001600020600601908051906020019061158792919061227d565b5080600a6000600954815260200190815260200160002060050160006101000a81548160ff0219169083151502179055506009600081548092919060010191905055507f9436a14beafef22fc388e72fab7a801b1385c446dd9d654daa214e5919c97de284600560003373ffffffffffffffffffffffffffffffffffffffff1673ffffffffffffffffffffffffffffffffffffffff16815260200190815260200160002060000160405161163c929190612dc6565b60405180910390a15050505050565b600560003373ffffffffffffffffffffffffffffffffffffffff1673ffffffffffffffffffffffffffffffffffffffff16815260200190815260200160002060020160015490806001815401808255809150509060018203906000526020600020016000909192909190915055508060076000600154815260200190815260200160002060020190805190602001906116e592919061227d565b503360076000600154815260200190815260200160002060000160006101000a81548173ffffffffffffffffffffffffffffffffffffffff021916908373ffffffffffffffffffffffffffffffffffffffff160217905550600154600760006001548152602001908152602001600020600101819055506001600081548092919060010191905055506000803373ffffffffffffffffffffffffffffffffffffffff1673ffffffffffffffffffffffffffffffffffffffff168152602001908152602001600020600760006001548152602001908152602001600020908060018154018082558091505090600182039060005260206000209060040201600090919290919091506000820160009054906101000a900473ffffffffffffffffffffffffffffffffffffffff168160000160006101000a81548173ffffffffffffffffffffffffffffffffffffffff021916908373ffffffffffffffffffffffffffffffffffffffff160217905550600182015481600101556002820181600201908054600181600116156101000203166002900461188492919061233b565b50600382018160030190805461189b9291906123c2565b505050507f55eca2fceb3e323326942151beb49e654c897f0b534546291700b705c02022b681600560003373ffffffffffffffffffffffffffffffffffffffff1673ffffffffffffffffffffffffffffffffffffffff168152602001908152602001600020600001604051611911929190612dc6565b60405180910390a150565b60076020528060005260406000206000915090508060000160009054906101000a900473ffffffffffffffffffffffffffffffffffffffff1690806001015490806002018054600181600116156101000203166002900480601f0160208091040260200160405190810160405280929190818152602001828054600181600116156101000203166002900480156119f45780601f106119c9576101008083540402835291602001916119f4565b820191906000526020600020905b8154815290600101906020018083116119d757829003601f168201915b5050505050905083565b6000600a600083815260200190815260200160002090506000600a60006009548152602001908152602001600020600a015414611a3a57600080fd5b6000806000611a4885611fc0565b9250925092506002600a6000878152602001908152602001600020600a018190555083600b0160009054906101000a900460ff1615611a8657600080fd5b60008090505b8460090180549050811015611be1576000856009018281548110611aac57fe5b9060005260206000200160009054906101000a900473ffffffffffffffffffffffffffffffffffffffff1690508415158660070160008373ffffffffffffffffffffffffffffffffffffffff1673ffffffffffffffffffffffffffffffffffffffff16815260200190815260200160002060009054906101000a900460ff1615151415611bd35760008660080160008373ffffffffffffffffffffffffffffffffffffffff1673ffffffffffffffffffffffffffffffffffffffff168152602001908152602001600020549050600085858381611b8557fe5b040290508273ffffffffffffffffffffffffffffffffffffffff166108fc829081150290604051600060405180830381858888f19350505050158015611bcf573d6000803e3d6000fd5b5050505b508080600101915050611a8c565b506003600a6000878152602001908152602001600020600a0181905550600184600b0160006101000a81548160ff0219169083151502179055505050505050565b6060611c2c612414565b600560003373ffffffffffffffffffffffffffffffffffffffff1673ffffffffffffffffffffffffffffffffffffffff168152602001908152602001600020604051806060016040529081600082018054600181600116156101000203166002900480601f016020809104026020016040519081016040528092919081815260200182805460018160011615610100020316600290048015611d0f5780601f10611ce457610100808354040283529160200191611d0f565b820191906000526020600020905b815481529060010190602001808311611cf257829003601f168201915b50505050508152602001600182018054600181600116156101000203166002900480601f016020809104026020016040519081016040528092919081815260200182805460018160011615610100020316600290048015611db15780601f10611d8657610100808354040283529160200191611db1565b820191906000526020600020905b815481529060010190602001808311611d9457829003601f168201915b5050505050815260200160028201805480602002602001604051908101604052809291908181526020018280548015611e0957602002820191906000526020600020905b815481526020019060010190808311611df5575b505050505081525050905060608160400151905060608151604051908082528060200260200182016040528015611e5457816020015b6060815260200190600190039081611e3f5790505b50905060008090505b8251811015611f3957600760008281526020019081526020016000206002018054600181600116156101000203166002900480601f016020809104026020016040519081016040528092919081815260200182805460018160011615610100020316600290048015611f105780601f10611ee557610100808354040283529160200191611f10565b820191906000526020600020905b815481529060010190602001808311611ef357829003601f168201915b5050505050828281518110611f2157fe5b60200260200101819052508080600101915050611e5d565b5080935050505090565b600a60008281526020019081526020016000206009013390806001815401808255809150509060018203906000526020600020016000909192909190916101000a81548173ffffffffffffffffffffffffffffffffffffffff021916908373ffffffffffffffffffffffffffffffffffffffff1602179055505050565b6000806000806000905060008090506000600a6000888152602001908152602001600020905060008060008060008090505b85600901805490508110156121a657600086600901828154811061201257fe5b9060005260206000200160009054906101000a900473ffffffffffffffffffffffffffffffffffffffff169050600115158760070160008373ffffffffffffffffffffffffffffffffffffffff1673ffffffffffffffffffffffffffffffffffffffff16815260200190815260200160002060009054906101000a900460ff16151514156120ed5785806001019650508660080160008273ffffffffffffffffffffffffffffffffffffffff1673ffffffffffffffffffffffffffffffffffffffff1681526020019081526020016000205484019350612198565b600015158760070160008373ffffffffffffffffffffffffffffffffffffffff1673ffffffffffffffffffffffffffffffffffffffff16815260200190815260200160002060009054906101000a900460ff16151514156121975784806001019550508660080160008273ffffffffffffffffffffffffffffffffffffffff1673ffffffffffffffffffffffffffffffffffffffff16815260200190815260200160002054830192505b5b508080600101915050611ff2565b50808211156121bb576001965081955061222d565b818111156121cf576000965080955061222c565b828411156121e3576001965081955061222b565b838311156121f7576000965080955061222a565b600115158560050160009054906101000a900460ff16151514156122215760019650819150612229565b600096508095505b5b5b5b5b60006064605f600a60008f815260200190815260200160002060030154028161225257fe5b049050600082840190506000818301905089818a9c509c509c50505050505050505050509193909250565b828054600181600116156101000203166002900490600052602060002090601f016020900481019282601f106122be57805160ff19168380011785556122ec565b828001600101855582156122ec579182015b828111156122eb5782518255916020019190600101906122d0565b5b5090506122f99190612435565b5090565b6040518060800160405280600073ffffffffffffffffffffffffffffffffffffffff1681526020016000815260200160608152602001606081525090565b828054600181600116156101000203166002900490600052602060002090601f016020900481019282601f1061237457805485556123b1565b828001600101855582156123b157600052602060002091601f016020900482015b828111156123b0578254825591600101919060010190612395565b5b5090506123be9190612435565b5090565b8280548282559060005260206000209081019282156124035760005260206000209182015b828111156124025782548255916001019190600101906123e7565b5b5090506124109190612435565b5090565b60405180606001604052806060815260200160608152602001606081525090565b61245791905b8082111561245357600081600090555060010161243b565b5090565b90565b60008135905061246981613132565b92915050565b60008135905061247e81613149565b92915050565b600082601f83011261249557600080fd5b81356124a86124a382612f73565b612f46565b915080825260208301602083018583830111156124c457600080fd5b6124cf8382846130df565b50505092915050565b6000813590506124e781613160565b92915050565b6000602082840312156124ff57600080fd5b600061250d8482850161245a565b91505092915050565b6000806040838503121561252957600080fd5b60006125378582860161245a565b9250506020612548858286016124d8565b9150509250929050565b60006020828403121561256457600080fd5b600082013567ffffffffffffffff81111561257e57600080fd5b61258a84828501612484565b91505092915050565b600080604083850312156125a657600080fd5b600083013567ffffffffffffffff8111156125c057600080fd5b6125cc85828601612484565b925050602083013567ffffffffffffffff8111156125e957600080fd5b6125f585828601612484565b9150509250929050565b60006020828403121561261157600080fd5b600061261f848285016124d8565b91505092915050565b6000806040838503121561263b57600080fd5b6000612649858286016124d8565b925050602061265a8582860161246f565b9150509250929050565b600080600080600060a0868803121561267c57600080fd5b600061268a888289016124d8565b955050602086013567ffffffffffffffff8111156126a757600080fd5b6126b388828901612484565b945050604086013567ffffffffffffffff8111156126d057600080fd5b6126dc88828901612484565b935050606086013567ffffffffffffffff8111156126f957600080fd5b61270588828901612484565b92505060806127168882890161246f565b9150509295509295909350565b600061272f8383612911565b905092915050565b60006127438383612bf8565b905092915050565b60006127578383612c62565b60208301905092915050565b61276c81613097565b82525050565b61277b81613097565b82525050565b600061278c82612fe4565b6127968185613042565b9350836020820285016127a885612f9f565b8060005b858110156127e457848403895281516127c58582612723565b94506127d08361301b565b925060208a019950506001810190506127ac565b50829750879550505050505092915050565b600061280182612fef565b61280b8185613053565b93508360208202850161281d85612faf565b8060005b85811015612859578484038952815161283a8582612737565b945061284583613028565b925060208a01995050600181019050612821565b50829750879550505050505092915050565b600061287682612ffa565b6128808185613064565b935061288b83612fbf565b8060005b838110156128bc5781516128a3888261274b565b97506128ae83613035565b92505060018101905061288f565b5085935050505092915050565b6128d2816130a9565b82525050565b60006128e382613010565b6128ed8185613086565b93506128fd8185602086016130ee565b61290681613121565b840191505092915050565b600061291c82613005565b6129268185613075565b93506129368185602086016130ee565b61293f81613121565b840191505092915050565b600061295582613005565b61295f8185613086565b935061296f8185602086016130ee565b61297881613121565b840191505092915050565b6000815460018116600081146129a057600181146129c657612a0a565b607f60028304166129b18187613086565b955060ff198316865260208601935050612a0a565b600282046129d48187613086565b95506129df85612fcf565b60005b82811015612a01578154818901526001820191506020810190506129e2565b80880195505050505b505092915050565b6000612a1f602483613086565b91507f566f74696e6720706f737369626c65206f6e6c79206f6e206e6577206368617060008301527f74657273000000000000000000000000000000000000000000000000000000006020830152604082019050919050565b6000612a85601283613086565b91507f63686170746572206973206e6f74206e657700000000000000000000000000006000830152602082019050919050565b6000612ac5600683613086565b91507f417574686f7200000000000000000000000000000000000000000000000000006000830152602082019050919050565b6000612b05603783613086565b91507f626f756e747920616d6f756e74206e6565647320746f2062652077697468696e60008301527f20302e30303120657468657220746f20332065746865720000000000000000006020830152604082019050919050565b6000612b6b600083613086565b9150600082019050919050565b6000612b85600683613086565b91507f52656164657200000000000000000000000000000000000000000000000000006000830152602082019050919050565b6000612bc5600d83613086565b91507f6b656570206120626f756e7479000000000000000000000000000000000000006000830152602082019050919050565b6000608083016000830151612c106000860182612763565b506020830151612c236020860182612c62565b5060408301518482036040860152612c3b8282612911565b91505060608301518482036060860152612c55828261286b565b9150508091505092915050565b612c6b816130d5565b82525050565b612c7a816130d5565b82525050565b6000606082019050612c956000830186612772565b612ca26020830185612c71565b8181036040830152612cb4818461294a565b9050949350505050565b600061012082019050612cd4600083018c612772565b612ce1602083018b612c71565b8181036040830152612cf3818a61294a565b9050612d026060830189612c71565b8181036080830152612d14818861294a565b9050612d2360a08301876128c9565b81810360c0830152612d35818661294a565b9050612d4460e0830185612c71565b612d526101008301846128c9565b9a9950505050505050505050565b60006020820190508181036000830152612d7a8184612781565b905092915050565b60006020820190508181036000830152612d9c81846127f6565b905092915050565b60006020820190508181036000830152612dbe818461294a565b905092915050565b60006040820190508181036000830152612de081856128d8565b90508181036020830152612df48184612983565b90509392505050565b60006040820190508181036000830152612e17818561294a565b90508181036020830152612e2b818461294a565b90509392505050565b60006020820190508181036000830152612e4d81612a12565b9050919050565b60006020820190508181036000830152612e6d81612a78565b9050919050565b60006060820190508181036000830152612e8d81612ab8565b90508181036020830152612ea181856128d8565b90508181036040830152612eb581846128d8565b90509392505050565b60006020820190508181036000830152612ed781612af8565b9050919050565b60006060820190508181036000830152612ef781612b78565b90508181036020830152612f0b81846128d8565b90508181036040830152612f1e81612b5e565b905092915050565b60006020820190508181036000830152612f3f81612bb8565b9050919050565b6000604051905081810181811067ffffffffffffffff82111715612f6957600080fd5b8060405250919050565b600067ffffffffffffffff821115612f8a57600080fd5b601f19601f8301169050602081019050919050565b6000819050602082019050919050565b6000819050602082019050919050565b6000819050602082019050919050565b60008190508160005260206000209050919050565b600081519050919050565b600081519050919050565b600081519050919050565b600081519050919050565b600081519050919050565b6000602082019050919050565b6000602082019050919050565b6000602082019050919050565b600082825260208201905092915050565b600082825260208201905092915050565b600082825260208201905092915050565b600082825260208201905092915050565b600082825260208201905092915050565b60006130a2826130b5565b9050919050565b60008115159050919050565b600073ffffffffffffffffffffffffffffffffffffffff82169050919050565b6000819050919050565b82818337600083830152505050565b60005b8381101561310c5780820151818401526020810190506130f1565b8381111561311b576000848401525b50505050565b6000601f19601f8301169050919050565b61313b81613097565b811461314657600080fd5b50565b613152816130a9565b811461315d57600080fd5b50565b613169816130d5565b811461317457600080fd5b5056fea365627a7a72315820f25857d86ea4d4f1f05f1614da8c23507535bc5b15e8a923e102b85bab68075b6c6578706572696d656e74616cf564736f6c63430005100040",
  "source": "//pragma solidity ^0.5.0;\npragma experimental ABIEncoderV2;\n\ncontract createActors{\n\n    mapping(address =>book []) public booksOfAuthor;\n    struct author{\n        string name;\n        string aboutAuthor;\n        uint[] bookIdList;\n    }\n\n    struct reader{\n        string name;\n    }\n\n    struct book{\n        address authorId;\n        uint bookId;\n        string name;\n        uint[] chapterIdList;\n    }\n\n\n    event HasReadBook(uint256 bookName, uint256 userName);\n    event UserCreated(string userType, string userName, string aboutAuthor);\n    event BookCreated(string bookName, string auhtor);\n    \n    uint bookId = 0;\n    uint readerCount = 0;\n    uint authorID = 0;\n    mapping(uint => address) authorIDToAddress;\n    mapping (address => author) public authorIdMapping;\n    mapping (address => reader) public readerIdMapping;\n    mapping (uint => book) public bookIdMapping;\n\n    function createAuthor(string memory _name, string memory _aboutAuthor) public\n    {\n        //check if msg.sender is not in authorIdMapping\n        authorIdMapping[msg.sender].name = _name;\n        authorIdMapping[msg.sender].aboutAuthor = _aboutAuthor;\n        authorIDToAddress[authorID] = msg.sender;\n        authorID++;\n        emit UserCreated(\"Author\", _name, _aboutAuthor);\n    }\n\n    function createReader(string memory _name) public\n    {\n        // check if msg.sender is not in readerIdMapping\n        readerIdMapping[msg.sender].name = _name;\n        emit UserCreated(\"Reader\", _name, \"\");\n    }\n\n    function createBook(string memory _name) public\n    {\n        // check if msg.sender exists in authorIdMapping\n        //authorBookList[msg.sender][authorBookCount] = bookId;\n        authorIdMapping[msg.sender].bookIdList.push(bookId);\n        bookIdMapping[bookId].name = _name;\n        bookIdMapping[bookId].authorId = msg.sender;\n        bookIdMapping[bookId].bookId = bookId;\n        bookId++;\n        booksOfAuthor[msg.sender].push(bookIdMapping[bookId]);\n        emit BookCreated(_name, authorIdMapping[msg.sender].name);\n    }\n    \n    \n    function getAllAuthors() view public returns (string[] memory )\n    {\n        string[] memory authourList = new string[](authorID);\n        for (uint i  = 0; i < authorID; i++)\n        {\n            address _temp = authorIDToAddress[i];\n            authourList[i] = authorIdMapping[_temp].name;\n        }\n        return authourList;\n    }\n    \n    \n    function getAllBooksOfAuthor() view public returns (string[] memory ) \n    {\n        author memory focusAuthor = authorIdMapping[msg.sender];\n        uint[] memory all_books_id = focusAuthor.bookIdList;\n        string[] memory bookNameList = new string[](all_books_id.length);\n        for (uint i = 0; i<all_books_id.length;i++){\n            bookNameList[i] = bookIdMapping[i].name;\n            }\n        return bookNameList;\n        \n    }\n    \n    function getAllBooks() view public returns (book[] memory)\n    {\n        book[] memory allBooks = new book[](bookId);\n        for (uint i = 0; i < bookId; i++)\n            allBooks[i] = bookIdMapping[i];\n        return allBooks;\n    }\n    \n}\n\ncontract story is createActors{\n    address owner;\n\n    struct chapter {\n        address author;\n        uint bookId;\n        string name;\n        uint bounty;\n        string content;\n        bool authorPreference;\n        string question;\n        mapping (address => bool) votesCasted;\n        mapping (address => uint) stake;\n        address[] readers;\n        uint chapterState;\n        bool isResolved;\n    }\n// get all chapters of a book\n    \n    uint chapterId = 0;\n    mapping (uint => chapter) public ChapterMapping;\n    event ChapterCreated(string chapterName, string authorName);\n\n    function createChapter(uint _bookId, string memory _name, string memory _content, string memory _question,\n    bool _authorPreference) public payable    {\n        require(msg.value >= 1 ether,\n        \"keep a bounty\");\n        //uint chapterCount = bookIdMapping[_bookId].chapterIdList.length;\n        bookIdMapping[_bookId].chapterIdList.push(chapterId);\n        ChapterMapping[chapterId].author = msg.sender;\n        ChapterMapping[chapterId].bookId = _bookId;\n        ChapterMapping[chapterId].name = _name;\n        ChapterMapping[chapterId].bounty = msg.value;\n        ChapterMapping[chapterId].content = _content;\n        ChapterMapping[chapterId].question = _question;\n        ChapterMapping[chapterId].authorPreference = _authorPreference;\n        chapterId++;\n        emit ChapterCreated(_name, authorIdMapping[msg.sender].name);\n    }\n\n    function getAllChapterBooks(uint _bookId) public view returns (string[] memory chapterOfBook)\n    {\n        uint[] memory chaptersList = bookIdMapping[_bookId].chapterIdList;\n        string[] memory chapterOfBook = new string[](chaptersList.length);\n        for (uint i = 0; i < chaptersList.length; i++)\n            chapterOfBook[i] = ChapterMapping[chaptersList[i]].name;\n            \n        return chapterOfBook;\n    }\n    \n    \n    function readChapter(uint _chapterId) public\n    {\n        // frontend how will the owner call readChapter !!!!\n        //require(msg.sender == owner);\n        //dont push again and again\n        ChapterMapping[_chapterId].readers.push(msg.sender);\n    }\n\n    function payReaders(uint _chapterId ) public{\n        //require(msg.sender == owner);\n        require(ChapterMapping[_chapterId].chapterState == 0, \"chapter is not new\");\n\n        uint bounty = (ChapterMapping[_chapterId].bounty * 5)/100;\n        address[] memory readerList = ChapterMapping[_chapterId].readers;\n        uint numberOfReaders = readerList.length;\n        uint readersShare = bounty/numberOfReaders;\n        for (uint i = 0; i < numberOfReaders; i++)\n        {\n            address(uint160(readerList[i])).transfer(readersShare);\n        }\n        ChapterMapping[_chapterId].chapterState = 1; //readers have been paid\n    }\n\n    function voteForFollowup(uint _chapterId,bool _vote ) public payable{\n        uint bounty = msg.value;\n        require(bounty >= 0.001 ether && bounty <= 3 ether,\"bounty amount needs to be within 0.001 ether to 3 ether\");\n        require( ChapterMapping[_chapterId].chapterState < 2, \"Voting possible only on new chapters\");\n        \n        if (_vote == true)\n        {\n            ChapterMapping[_chapterId].votesCasted[msg.sender] = true;\n        }\n        else\n        {\n            ChapterMapping[_chapterId].stake[msg.sender] = bounty;\n        }\n    }\n\n    function createConsesus(uint _chapterId) internal view returns (bool,uint,uint)\n    {\n        bool winner = false;\n        uint returnSum = 0;\n        chapter storage focusChapter = ChapterMapping[_chapterId];\n\n        // figure out propotion of winner\n\n        uint totalTrueCount;\n        uint totalFalseCount;\n        uint totalTrueSum;\n        uint totalFalseSum;\n\n        for (uint i = 0; i < focusChapter.readers.length; i++)\n        {\n            address temp_ = focusChapter.readers[i];\n            if (focusChapter.votesCasted[temp_] == true)\n            {\n                totalTrueCount++;\n                totalTrueSum += focusChapter.stake[temp_];\n            }\n            else if (focusChapter.votesCasted[temp_] == false)\n            {\n                totalFalseCount++;\n                totalFalseSum += focusChapter.stake[temp_];\n            }\n\n        }\n\n        if (totalTrueSum > totalFalseSum)\n        {\n            winner = true;\n            returnSum = totalTrueSum;\n        }\n        else if (totalFalseSum > totalTrueSum)\n        {\n            winner = false;\n            returnSum = totalFalseSum;\n        }\n        else\n        {\n            if (totalTrueCount > totalFalseCount)\n            {\n                winner = true;\n                returnSum = totalTrueSum;\n            }\n            else if (totalFalseCount > totalTrueCount)\n            {\n                winner = false;\n                returnSum = totalFalseSum;\n            }\n            else\n            {\n                if (focusChapter.authorPreference == true)\n                {\n                    winner = true;\n                    totalTrueSum = totalTrueSum;\n                }\n                else\n                {\n                    winner = false;\n                    returnSum = totalFalseSum;\n                }\n            }\n        }\n        uint total_pool_author = (ChapterMapping[_chapterId].bounty * 95)/100;\n        uint total_pool_betting = totalTrueSum + totalFalseSum;\n        uint total_pool = total_pool_author + total_pool_betting;\n        return (winner,total_pool,returnSum);\n    }\n\n    function makePayemntOnConsensus (uint _chapterId) public payable{\n        chapter storage focusChapter = ChapterMapping[_chapterId];\n        //this should work only if state is active and unresolved\n        require(ChapterMapping[chapterId].chapterState == 0);\n        \n        ( bool winner, uint total_pool,uint returnSum) = createConsesus(_chapterId);\n        ChapterMapping[_chapterId].chapterState = 2;\n        require(!focusChapter.isResolved);\n\n        for (uint i = 0; i < focusChapter.readers.length; i++)\n        {\n            address temp_ = focusChapter.readers[i];\n            if (focusChapter.votesCasted[temp_] == winner)\n            {\n                uint stake = focusChapter.stake[temp_];\n                uint toPay = (stake/returnSum)*total_pool;\n                address(uint160(temp_)).transfer(toPay);\n            }\n        }\n        ChapterMapping[_chapterId].chapterState = 3; //voters have been paid\n        focusChapter.isResolved = true;\n    }\n}\n",
  "sourcePath": "/Users/adityaranaut/Desktop/makethon final/eth-taskreview/contracts/smart_contract.sol",
  "compiler": {
    "name": "solc",
    "version": "0.5.16+commit.9c3226ce.Emscripten.clang"
  },
  "schemaVersion": "3.3.4",
  "updatedAt": "2021-03-06T22:34:06.238Z",
  "devdoc": {
    "methods": {}
  },
  "userdoc": {
    "methods": {}
  }
}